{"abi":[{"type":"constructor","inputs":[],"stateMutability":"nonpayable"},{"type":"function","name":"getAgentStatus","inputs":[],"outputs":[{"name":"","type":"uint256","internalType":"uint256"},{"name":"","type":"string","internalType":"string"}],"stateMutability":"view"},{"type":"function","name":"lastActionData","inputs":[],"outputs":[{"name":"","type":"string","internalType":"string"}],"stateMutability":"view"},{"type":"function","name":"lastActionTimestamp","inputs":[],"outputs":[{"name":"","type":"uint256","internalType":"uint256"}],"stateMutability":"view"},{"type":"function","name":"owner","inputs":[],"outputs":[{"name":"","type":"address","internalType":"address"}],"stateMutability":"view"},{"type":"function","name":"triggerAgentAction","inputs":[{"name":"_data","type":"string","internalType":"string"}],"outputs":[],"stateMutability":"nonpayable"},{"type":"event","name":"AgentActionTriggered","inputs":[{"name":"data","type":"string","indexed":false,"internalType":"string"},{"name":"timestamp","type":"uint256","indexed":false,"internalType":"uint256"}],"anonymous":false}],"bytecode":{"object":"0x6080604052348015600e575f5ffd5b50335f5f6101000a81548173ffffffffffffffffffffffffffffffffffffffff021916908373ffffffffffffffffffffffffffffffffffffffff1602179055506109a88061005b5f395ff3fe608060405234801561000f575f5ffd5b5060043610610055575f3560e01c806377d93559146100595780638da5cb5b14610077578063ab94829514610095578063dd8d37cf146100b4578063eac697c9146100d0575b5f5ffd5b6100616100ee565b60405161006e919061038f565b60405180910390f35b61007f61017a565b60405161008c91906103ee565b60405180910390f35b61009d61019e565b6040516100ab92919061041f565b60405180910390f35b6100ce60048036038101906100c9919061058a565b610238565b005b6100d8610319565b6040516100e591906105d1565b60405180910390f35b600280546100fb90610617565b80601f016020809104026020016040519081016040528092919081815260200182805461012790610617565b80156101725780601f1061014957610100808354040283529160200191610172565b820191905f5260205f20905b81548152906001019060200180831161015557829003601f168201915b505050505081565b5f5f9054906101000a900473ffffffffffffffffffffffffffffffffffffffff1681565b5f606060015460028080546101b290610617565b80601f01602080910402602001604051908101604052809291908181526020018280546101de90610617565b80156102295780601f1061020057610100808354040283529160200191610229565b820191905f5260205f20905b81548152906001019060200180831161020c57829003601f168201915b50505050509050915091509091565b5f5f9054906101000a900473ffffffffffffffffffffffffffffffffffffffff1673ffffffffffffffffffffffffffffffffffffffff163373ffffffffffffffffffffffffffffffffffffffff16146102c6576040517f08c379a00000000000000000000000000000000000000000000000000000000081526004016102bd906106b7565b60405180910390fd5b4260018190555080600290816102dc9190610875565b507f71c9e786d759c69f02b766ab2eb0a05ec5ad901f1b8b305adbcb67ef51f3fbc1814260405161030e929190610944565b60405180910390a150565b60015481565b5f81519050919050565b5f82825260208201905092915050565b8281835e5f83830152505050565b5f601f19601f8301169050919050565b5f6103618261031f565b61036b8185610329565b935061037b818560208601610339565b61038481610347565b840191505092915050565b5f6020820190508181035f8301526103a78184610357565b905092915050565b5f73ffffffffffffffffffffffffffffffffffffffff82169050919050565b5f6103d8826103af565b9050919050565b6103e8816103ce565b82525050565b5f6020820190506104015f8301846103df565b92915050565b5f819050919050565b61041981610407565b82525050565b5f6040820190506104325f830185610410565b81810360208301526104448184610357565b90509392505050565b5f604051905090565b5f5ffd5b5f5ffd5b5f5ffd5b5f5ffd5b7f4e487b71000000000000000000000000000000000000000000000000000000005f52604160045260245ffd5b61049c82610347565b810181811067ffffffffffffffff821117156104bb576104ba610466565b5b80604052505050565b5f6104cd61044d565b90506104d98282610493565b919050565b5f67ffffffffffffffff8211156104f8576104f7610466565b5b61050182610347565b9050602081019050919050565b828183375f83830152505050565b5f61052e610529846104de565b6104c4565b90508281526020810184848401111561054a57610549610462565b5b61055584828561050e565b509392505050565b5f82601f8301126105715761057061045e565b5b813561058184826020860161051c565b91505092915050565b5f6020828403121561059f5761059e610456565b5b5f82013567ffffffffffffffff8111156105bc576105bb61045a565b5b6105c88482850161055d565b91505092915050565b5f6020820190506105e45f830184610410565b92915050565b7f4e487b71000000000000000000000000000000000000000000000000000000005f52602260045260245ffd5b5f600282049050600182168061062e57607f821691505b602082108103610641576106406105ea565b5b50919050565b7f4f6e6c79206f776e65722063616e2063616c6c20746869732066756e6374696f5f8201527f6e00000000000000000000000000000000000000000000000000000000000000602082015250565b5f6106a1602183610329565b91506106ac82610647565b604082019050919050565b5f6020820190508181035f8301526106ce81610695565b9050919050565b5f819050815f5260205f209050919050565b5f6020601f8301049050919050565b5f82821b905092915050565b5f600883026107317fffffffffffffffffffffffffffffffffffffffffffffffffffffffffffffffff826106f6565b61073b86836106f6565b95508019841693508086168417925050509392505050565b5f819050919050565b5f61077661077161076c84610407565b610753565b610407565b9050919050565b5f819050919050565b61078f8361075c565b6107a361079b8261077d565b848454610702565b825550505050565b5f5f905090565b6107ba6107ab565b6107c5818484610786565b505050565b5b818110156107e8576107dd5f826107b2565b6001810190506107cb565b5050565b601f82111561082d576107fe816106d5565b610807846106e7565b81016020851015610816578190505b61082a610822856106e7565b8301826107ca565b50505b505050565b5f82821c905092915050565b5f61084d5f1984600802610832565b1980831691505092915050565b5f610865838361083e565b9150826002028217905092915050565b61087e8261031f565b67ffffffffffffffff81111561089757610896610466565b5b6108a18254610617565b6108ac8282856107ec565b5f60209050601f8311600181146108dd575f84156108cb578287015190505b6108d5858261085a565b86555061093c565b601f1984166108eb866106d5565b5f5b82811015610912578489015182556001820191506020850194506020810190506108ed565b8683101561092f578489015161092b601f89168261083e565b8355505b6001600288020188555050505b505050505050565b5f6040820190508181035f83015261095c8185610357565b905061096b6020830184610410565b939250505056fea26469706673582212204a5e79ef27882eb312343f2f94e332f4360c664a232070115c162031bfad090964736f6c634300081e0033","linkReferences":{}},"methodIdentifiers":{"getAgentStatus()":"ab948295","lastActionData()":"77d93559","lastActionTimestamp()":"eac697c9","owner()":"8da5cb5b","triggerAgentAction(string)":"dd8d37cf"},"id":19}